:100000000C946C040C9494040C9494040C94940438
:100010000C9494040C9494040C9494040C94940400
:100020000C9494040C9494040C9494040C949404F0
:100030000C9494040C94462E0C9494040C94940404
:100040000C94DD2C0C9494040C9494040C9494045F
:100050000C9494040C9494040C9494040C949404C0
:100060000C94272D0C94940453746F707065640085
:100070002020202020202020202020202020202080
:10008000002500000000000000000000005F0000EC
:10009000000000000007000700000000147F147F2C
:1000A00014000000242A7F2A120000002313086491
:1000B0006200000036495522500000000005030090
:1000C000000000001C2241000000000041221C0032
:1000D00000000000082A1C2A0800000008083E084A
:1000E00008000000A06000000000000008080808E8
:1000F00008000000606000000000000020100804FC
:10010000020000003E5149453E00000000427F4091
:10011000000000006251494946000000224149495F
:10012000360000001814127F1000000027454545D6
:10013000390000003C4A49493000000001710905BE
:1001400003000000364949493600000006494929A4
:100150001E000000003636000000000000AC6C00FD
:1001600000000000081422410000000014141414C0
:10017000140000004122140800000000020151098F
:1001800006000000324979413E0000007E0909095D
:100190007E0000007F494949360000003E41414150
:1001A000220000007F4141221C0000007F49494994
:1001B000410000007F090909010000003E41415152
:1001C000720000007F0808087F000000417F4100A6
:1001D000000000002040413F010000007F08142281
:1001E000410000007F404040400000007F020C02C0
:1001F0007F0000007F0408107F0000003E41414165
:100200003E0000007F090909060000003E4151211F
:100210005E0000007F09192946000000264949496F
:100220003200000001017F01010000003F4040401A
:100230003F0000001F2040201F0000003F403840CA
:100240003F000000631408146300000003047804F6
:100250000300000061514945430000007F41410017
:1002600000000000020408102000000041417F004F
:100270000000000004020102040000008080808071
:1002800080000000010204000000000020545454CB
:10029000780000007F484444380000003844442877
:1002A00000000000384444487F0000003854545493
:1002B00018000000087E09020000000018A4A4A491
:1002C0007C0000007F08040478000000007D00002E
:1002D0000000000080847D00000000007F102844A2
:1002E00000000000417F4000000000007C04180472
:1002F000780000007C08047C00000000384444388A
:1003000000000000FC24241800000000182424FC35
:1003100000000000007C0804000000004854542441
:1003200000000000047F4400000000003C40407CCE
:10033000000000001C2040201C0000003C40304019
:100340003C00000044281028440000001CA0A07CB1
:10035000000000004464544C440000000836410092
:1003600000000000007F000000000000413608008F
:100370000000000002010102010000000205050268
:100380000000004572726F722052656164696E6789
:100390002046696C65004E6F7420545A5854617041
:1003A00065005A5854617065214572726F7220520F
:1003B000656164696E672046696C65004E6F7420E4
:1003C00041592046696C65005A584159454D554C74
:1003D0004572726F722052656164696E672046696A
:1003E0006C65004E6F74205545462046696C65006B
:1003F0005545462046696C6521545A584455494E26
:100400004F9D202D204C3A200049443F2000000001
:10041000035A58415946696C6520201A0B00C000E8
:10042000806E00000000250028002B000000000066
:10043000230026002900000000080002010000033C
:1004400004070000000000000000000000000000A1
:10045000000000000000000000000000000000009C
:10046000000000000000000000000000000000008C
:10047000000000000000000000000000000000007C
:10048000000000000000000000000000000000006C
:1004900000000000000000808080808080808080DC
:1004A000808080808080808080808080808080804C
:1004B000808080808080808080808080808080803C
:1004C00080808080808080000000000000000000AC
:1004D00000000080E0F0F8F8F8F8F8F08000000084
:1004E000000000808080808080808080808000008C
:1004F000008080808080808080F8F8F8F818000004
:10050000808080800000000000808080800000806B
:10051000B8B8B8980000FF010000008080C1E36413
:100520007434343434346464C4C4040404040404EB
:100530000404040480C0E060703030303030646403
:10054000C3C18000000000FF0000000000C0E0F018
:100550007C3E3F3F333130313F7FFFFFFFF8E0000B
:1005600000C0F0FFFFFF0F0300000000000038FF95
:10057000FFE7C3C0C040C0FCFFFF7F1F00007CFF3F
:10058000FFFFFFC3C04040E0FCFF7F0300E0FCFF33
:10059000FFFF03000000FF000000001F3F7060E04D
:1005A000C0C0C0C0C0C0E060713F1F0F00000000AD
:1005B0000000001F3F7060E0C0C0C0C0C0C0E0606D
:1005C000703F1F0F000000FF00000000000000004F
:1005D000000000000000000000000000000000001B
:1005E000000000000000000000000000000000000B
:1005F00000000000000000000000000000000000FB
:1006000000000000000000000000000000000000EA
:10061000000000000000070408080818181818183F
:10062000181818181818181818181818181818184A
:10063000181818181818181818181818181818183A
:1006400018181818180808070000537461727469A4
:100650006E672E2E004E6F2053442043617264005B
:100660002E756566002E6179002E6F002E70002EAB
:10067000746170004572726F72204F70656E696EA2
:10068000672046696C650050617573656420004E93
:100690006F2046696C652053656C65637465640002
:1006A000506C6179696E6720202020202020202056
:1006B000004F6666202A2020202020202020202095
:1006C00020004F6E20202A202020202020202020C3
:1006D0002020004772656D6C696E204C6F61646507
:1006E0007200506C61796261636B20566F6C756D3E
:1006F000653A004F6666202A2020202020202020F6
:10070000202020004F6E20202A2020202020202082
:1007100020202020005061757365204020537461B3
:100720007274004F6666202A20202020202020207E
:10073000202020004F6E20202A2020202020202052
:100740002020202000547572626F20426F6F7374F6
:1007500000333630302042617564202A202020206A
:10076000200033363030204261756400323430303E
:100770002042617564202A2020202020003234305D
:10078000302042617564003132303020426175643E
:10079000202A202020202000313230302042617574
:1007A000640054535820426175642052617465009E
:1007B0004F757470757420566F6C756D6500477257
:1007C000656D6C696E204C6F616465720050617577
:1007D0007365204020537461727400547572626FA7
:1007E00020426F6F73740054535820426175642027
:1007F00052617465004D656E752053637265656E58
:1008000000506C6179696E67005061757365642092
:10081000004368673A004261743A202020252C5634
:100820006F6C3A2020200020202020202020202033
:100830002020202020202000534420436172642087
:1008400072656D6F766564002020202020202020B6
:1008500020202020202020200020202020202020B8
:1008600020202020202020202000545A5844756940
:100870006E6F20312E313700506C6179696E6700E0
:10088000506175736564200053656C656374204620
:10089000696C652E2E00545A584475696E6F20316C
:1008A0002E31370000000000240027002A0001023A
:1008B00004081020408001020408102001020408EE
:1008C00010200404040404040404020202020202CC
:1008D0000303030303036D2E11241FBECFEFD8E0E3
:1008E000DEBFCDBF11E0A0E0B1E0E0E2F9E702C079
:1008F00005900D92A435B107D9F727E0A4E5B1E042
:1009000001C01D92A331B207E1F714E0CCE6D4E0B8
:1009100004C02197FE010E94573CCB36D107C9F78E
:100920000E94A62E0C948E3C0C940000AB01BC01DE
:10093000A3E0440F551F661F771FAA95D1F74115F5
:10094000510521E06207710504F581E080938B0475
:10095000CA012FB720938C04F89490938A04809353
:100960008904909387008093860080918C048FBFC8
:1009700080918100887F8093810080918100909197
:100980008B04892B809381000895DB01CA01F3E079
:10099000B595A79597958795FA95D1F7009721E09A
:1009A000A207B10524F422E020938B04D2CFDB010F
:1009B000CA01E6E0B595A79597958795EA95D1F791
:1009C000009721E0A207B10514F423E0EDCFBB2787
:1009D00077FDBA95A72F962F852F009721E0A207C4
:1009E000B10514F424E0E0CFDB01CA012AE0B5959B
:1009F000A795979587952A95D1F7009721E0A207AB
:100A0000B10514F425E0D0CF85E080938B048FEFFF
:100A10009FEFA0E0B0E09DCF91E0909362048093BF
:100A20008404109263041092850408958091210338
:100A300090912003891B990B089580918E0190E07D
:100A4000E0910002880F991FE80FF92FF11DEE0FBA
:100A5000FF1FED5FFD4F2081318110928D0180914C
:100A60001D0381111FC02115310509F491C037FF05
:100A700022C081E080938C013F7790911603911101
:100A800080E08093160381E080938B0190918A012E
:100A9000913011F436FD28C090911603911151C088
:100AA000299829C02230310508F472C060E472E44C
:100AB0008FE090E03EC080918B01882331F08091DF
:100AC0008B01813051F080E0E1CF9091160381E0FD
:100AD000911180E080931603F6CF80918C018111F3
:100AE000F2CF10928B01D2CF35FD29C029982091E9
:100AF000880130918901813049F59091220391114B
:100B000022C01092160380918E0190E0E0910002C5
:100B100021503109880F991FE80FF92FF11DEE0FB1
:100B2000FF1FED5FFD4F318320836CED75E080E0AA
:100B300090E06C5F7F4F8F4F9F4F0C949604299AE3
:100B4000D6CF299AD8CF80931603DDCF80918C0120
:100B50008130D1F4A8EEB3E00E94713A10928C017A
:100B600020918E012F5F20938E0120918E012134E0
:100B700000F310928E012091000231E02327209390
:100B8000000230930501D5CFB90190E080E0E8CFB5
:100B900080911D0381118ACF80918E018F5F809398
:100BA0008E0180918E01813450F010928E018091DF
:100BB000000291E08927809300029093050168EE7E
:100BC00073E080E090E0B5CF08950895833081F020
:100BD00028F4813099F08230A9F008958730A9F087
:100BE0008830C9F08430B1F4809180008F7D03C0DB
:100BF000809180008F7780938000089584B58F77EF
:100C000084BD089584B58F7DFBCF8091B0008F7730
:100C10008093B00008958091B0008F7DF9CFCF937D
:100C2000DF93282F30E0F901EA5CFB4F8491F90152
:100C3000E255F74FD491F901EE53F74FC491CC230D
:100C4000A1F081110E94E605EC2FF0E0EE0FFF1FEE
:100C5000E45DFB4FA591B491EC91ED2381E090E030
:100C600009F480E0DF91CF91089580E090E0FACF21
:100C70001F93CF93DF93282F30E0F901EA5CFB4FFD
:100C80008491F901E255F74FD491F901EE53F74FF2
:100C9000C491CC23A9F0162F81110E94E605EC2FF8
:100CA000F0E0EE0FFF1FEE5DFB4FA591B4918FB703
:100CB000F894EC91111108C0D095DE23DC938FBF1E
:100CC000DF91CF911F910895DE2BF8CFCF93DF9363
:100CD00090E0FC01E255F74F24918E53974FFC01B1
:100CE00084918823D1F090E0880F991FFC01EC5586
:100CF000F74FA591B491FC01EE5DFB4FC591D491E6
:100D0000623071F49FB7F8943C91822F80958323D1
:100D10008C93E8812E2B28839FBFDF91CF9108957C
:100D20008FB7F894EC912E2B2C938FBFF6CF3FB753
:100D3000F8948091F3019091F401A091F501B091A4
:100D4000F60126B5A89B05C02F3F19F00196A11DFD
:100D5000B11D3FBFBA2FA92F982F8827BC01CD0105
:100D6000620F711D811D911D42E0660F771F881F64
:100D7000991F4A95D1F708958F929F92AF92BF9293
:100D8000CF92DF92EF92FF926B017C010E94970657
:100D90004B015C01C114D104E104F104B9F00E94DB
:100DA0009706681979098A099B09683E734081058D
:100DB000910580F321E0C21AD108E108F10888EE1C
:100DC000880E83E0981EA11CB11CE4CFFF90EF9029
:100DD000DF90CF90BF90AF909F908F9008952FB7E6
:100DE000F8946091EF017091F0018091F101909180
:100DF000F2012FBF08952091CB01260F3327331F17
:100E000021323105ECF420915C04FC0190E080E09B
:100E1000243069F082E00895A091CB012191AC01CA
:100E200045555E4FA40FB52FB11D2C930196861723
:100E300098F38091CB01680F6093CB0180E0089517
:100E400081E0089510925C0481E080935B0410922D
:100E5000360461E082E10E94380661E083E10E948D
:100E60003806E9EBF0E080818E7F808380818D7F82
:100E7000808388E48093B80085E48093BC00089563
:100E8000CF93DF9391E09093AA018823B9F0C091AA
:100E9000B800D091BA008091BC008A7B8093BC00DE
:100EA00060E082E10E94380660E083E10E9438063B
:100EB0000E942207D093BA00C093B800DF91CF916F
:100EC00008958F929F92AF92BF92CF92DF92EF924E
:100ED000FF920F931F93CF93DF93D0918504D1326C
:100EE00008F0D7C0182FC09184040E9497066B01A8
:100EF0007C0180915C0481116BC082E080935C0472
:100F000010935B048FEF80935A0410925904D0938E
:100F10005804A4E6B4E0E8E3F4E080E0D81391C01C
:100F20001092370480913704CC0FC82BC09337043C
:100F300080913604813009F088C0109236040E94F6
:100F400097066B017C01809137048093BB008091F0
:100F50005E0490915F04A0916004B0916104892BBC
:100F60008A2B8B2BA1F00E94970600915E041091B2
:100F70005F0420916004309161046C197D098E0931
:100F80009F09061717072807390708F442C0809100
:100F9000BC0083FDD8CF85EC8093BC000E949706EF
:100FA0006B017C0180915C04823009F450C0809117
:100FB0005A048F3F09F46FC080915A04803209F4BB
:100FC0006CC080915A04803309F469C084E026C063
:100FD00080915E0490915F04A0916004B0916104DF
:100FE000892B8A2B8B2B09F484CF0E949706809043
:100FF0005E0490905F04A0906004B09061046C194E
:101000007D098E099F0986169706A806B90608F07D
:1010100070CF80915D040E94400785E010926304C8
:101020001092850410926204DF91CF911F910F916D
:10103000FF90EF90DF90CF90BF90AF909F908F90F8
:1010400008959D9191938F5F69CF85EEA5CF809193
:101050005E0490915F04A0916004B0916104892BBB
:101060008A2B8B2B09F49ECF0E94970600915E0479
:1010700010915F0420916004309161046C197D0926
:101080008E099F09061717072807390708F08ACF26
:10109000C0CF81E0C3CF80E0C1CF82E0BFCF83E08B
:1010A000BDCFCF92DF92EF92FF920F931F93CF931A
:1010B000DF93D82FC62F613208F098C00E949706A0
:1010C0006B017C0180915C0481116BC081E0809395
:1010D0005C0480935B049FEF90935A041092590430
:1010E0009C0F909358048093370480913704DD0F50
:1010F000D82BD093370480913604813009F078C022
:10110000109236040E9497066B017C01809137048F
:101110008093BB0080915E0490915F04A091600475
:10112000B0916104892B8A2B8B2BA1F00E9497062A
:1011300000915E0410915F0420916004309161047D
:101140006C197D098E099F090617170728073907AB
:1011500008F448C08091BC0083FDD8CF85EC809313
:10116000BC000E9497066B017C0180915C04813079
:1011700009F440C0809159048C1710F4C0915904AF
:10118000E8E3F4E0ABE8B3E080E08C1355C08C2FCB
:10119000DF91CF911F910F91FF90EF90DF90CF9053
:1011A000089580915E0490915F04A0916004B091D5
:1011B0006104892B8A2B8B2B09F484CF0E9497061C
:1011C00000915E0410915F042091600430916104ED
:1011D0006C197D098E099F0906171707280739071B
:1011E00008F070CF80915D040E944007C0E0CFCF2F
:1011F00085EEB5CF80915E0490915F04A09160046C
:10120000B0916104892B8A2B8B2B09F4AECF0E94FD
:10121000970600915E0410915F0420916004309164
:1012200061046C197D098E099F09061717072807A5
:10123000390708F09ACFD6CF91919D938F5FA5CFB4
:101240000895E091200380912103E81730F4F0E045
:10125000E557FC4F808190E008958FEF9FEF089550
:1012600090912003809121032FEF3FEF981748F4CE
:10127000E92FF0E0E557FC4F208130E09F5F90932D
:101280002003C9010895CF92DF92EF92FF920F934E
:101290001F93CF93DF937C01CB018A0120916204DD
:1012A000222389F0EB016B01C40ED51ECC15DD05A0
:1012B00069F06991D701ED91FC910190F081E02DE9
:1012C000C7010995F3CF642F0E94FB06C801DF9187
:1012D000CF911F910F91FF90EF90DF90CF900895E5
:1012E000CF93DF931F92CDB7DEB76983209162045D
:1012F0002223F9F020918504203258F021E030E0DB
:10130000FC013383228390E080E00F90DF91CF9146
:10131000089580916304E82FF0E0EC59FB4F998128
:1013200090838F5F809363048093850481E090E0D5
:10133000ECCF61E0CE0101960E94FB06F7CF682F4B
:101340008FE894E00C947009CF93DF93EC01E9816E
:10135000FA81908181819CBD8DBDE981FA8160E037
:1013600082810E94380681E08B83DF91CF910895BE
:101370008EBD0DB407FEFDCF08958FEF8EBD0DB469
:1013800007FEFDCF8EB508950F931F93CF93DF9384
:10139000EC010E94EF068B010E94BD098F3F69F0AE
:1013A0000E94EF06601B710BC617D707A8F780E0F5
:1013B000DF91CF911F910F91089581E0F9CFCF93E5
:1013C000DF93FC012381222361F0EC010180F28193
:1013D000E02D61E082810E9438068FEF0E94B809FB
:1013E0001B82DF91CF910895DF92EF92FF920F93CE
:1013F0001F93CF93DF938C01C62FD22FF32EE42EB1
:10140000D52EFC018381811103C0C8010E94A4096B
:10141000CC2321F08CE291E00E94C4098C2F8064DF
:101420000E94B8098D2D0E94B8098E2D0E94B8091E
:101430008F2D0E94B8098D2F0E94B80987E8C1112D
:1014400001C085E90E94B8090E94BD09CBE00E9455
:10145000BD09F801848387FF02C0C150C1F7DF9145
:10146000CF911F910F91FF90EF90DF9008950F9310
:101470001F93CF93DF93EC0189018D81833039F085
:1014800089E0440F551F661F771F8A95D1F79A018F
:10149000AB0168E1CE010E94F409882319F082E3D0
:1014A000888339C08EEF0E94B809F80180818EBD13
:1014B000818132961E5F0DB407FEFDCF8EBDE01711
:1014C000F10711F08191F7CF0DB407FEFDCF8FEF3B
:1014D0000E94B8098FEF0E94B8090E94BD098C8351
:1014E0008F71853099F480ED97E00E94C409182F20
:1014F0008AE51123A9F220E030E0A9016DE0CE01D8
:101500000E94F409882361F089E2CACF87E58883C5
:10151000CE010E94DF09CE010E94DF0910E007C062
:101520000E94BD098111F0CFCE010E94DF09812FF9
:10153000DF91CF911F910F910895EF92FF920F933A
:101540001F93CF93DF93EC0179018D81833039F0C4
:1015500089E0440F551F661F771F8A95D1F79A01BE
:10156000AB0161E1CE010E94F409882339F080E3E8
:101570008883CE010E94DF0980E037C00E94EF0619
:101580008B010E94BD098C838F3F69F40E94EF0696
:10159000601B710B693E7340A0F385E58883CE0123
:1015A0000E94DF09E6CF8E3F11F080E5F7CF8FEF85
:1015B0008EBDF701D701A150BE4F9FEF0DB407FEBE
:1015C000FDCF8EB59EBD8193AE17BF07B9F70DB4A1
:1015D00007FEFDCF8EB58C931C820E94BD090E9430
:1015E000BD09CE010E94DF0981E0DF91CF911F91FB
:1015F0000F91FF90EF900895EF92FF921F93CF937A
:10160000DF93FC01208111E020FF14C0EC017C017C
:10161000F7E0EF0EF11C4B815C816D817E81E981E9
:10162000FA819701808191810E94370A182F8111D8
:1016300008C010E0812FDF91CF911F91FF90EF90B4
:101640000895888181FD04C088818E7F8883F2CFD0
:10165000E981FA814B815C816D817E8184859585EC
:10166000A685B785480F591F6A1F7B1F9701808188
:1016700091810E94370A8111E7CFDBCFCF92DF92B1
:10168000EF92FF921F93CF93DF93EC016A017B01EE
:10169000122F8B819C81AD81BE818C159D05AE057D
:1016A000BF05B1F0CE010E94FC0A81110AC090E092
:1016B00080E0DF91CF911F91FF90EF90DF90CF906E
:1016C000089512FF0CC01882CB82DC82ED82FE826C
:1016D00013708881182B1883CE010796EACFE98111
:1016E000FA819E01295F3F4FB701A6018081918158
:1016F0000E949D0A8111E7CFDACF8F929F92AF921D
:10170000BF92CF92DF92EF92FF920F931F931092AE
:10171000C80441E050E060E070E04093CB04509397
:10172000CC046093CD047093CE0423EC34E030936A
:10173000E5042093E4041092E3044FEF5FEFBA0155
:101740004093E6045093E7046093E8047093E9043F
:10175000882309F450C020E040E050E0BA0183EE55
:1017600094E00E943E0B009761F480E01F910F917E
:10177000FF90EF90DF90CF90BF90AF909F908F90B1
:101780000895FC01E254FE4F20812F7771F78A53B0
:101790009E4FFC01C080D180E280F380C114D1044F
:1017A000E104F10411F320E0B701A60183EE94E017
:1017B0000E943E0BFC01892BC1F283859485811523
:1017C000924099F68089823081F686859785892BAB
:1017D00061F225852093C5048FEF820F8093C604A4
:1017E00080E091E0291769F08F5F893041F488E04B
:1017F0008093C704BACFC12CD12C7601D4CF990FD6
:10180000F1CF8093C7044689578970E060E04115A5
:10181000510521F444A155A166A177A14093CF04BD
:101820005093D0046093D1047093D20426853785F9
:1018300046015701820E931EA11CB11C8092D70451
:101840009092D804A092D904B092DA042189328906
:101850003093CA042093C904440F551F661F771F95
:10186000480D591D6A1D7B1D4093DF045093E00411
:101870006093E1047093E20421893289A5E0220F8C
:10188000331FAA95E1F721503E4F232F332726958A
:10189000420F531F611D711D4093D3045093D40414
:1018A0006093D5047093D6040389148930E020E056
:1018B0000115110521F400A111A122A133A1C41A1F
:1018C000D50AE60AF70AC00ED11EE21EF31E04C0B6
:1018D000F694E794D794C7948A95D2F7D701C601B6
:1018E0000196A11DB11D8093DB049093DC04A093AD
:1018F000DD04B093DE0485EFC8168FE0D806E1045E
:10190000F10420F48CE08093C8042FCF80E125EF10
:10191000C2162FEFD206E104F10468F084A595A564
:10192000A6A5B7A58093DF049093E004A093E104FB
:10193000B093E20480E28093C80481E017CF8F92D5
:101940009F92AF92BF92CF92DF92EF92FF920F934E
:101950001F93423051056105710560F480E01F91CD
:101960000F91FF90EF90DF90CF90BF90AF909F903E
:101970008F900895FC01C08CD18CE28CF38CC4163E
:10198000D506E606F70650F3480159016A017B01C6
:101990008581803241F584899589A689B78917E0C8
:1019A00076956795579547951A95D1F7480F591F22
:1019B0006A1F7B1F23E0CF0180960E943E0B009799
:1019C00069F2E894C7F8DD24EE24FF24CC0CDD1C7A
:1019D000CC0CDD1C8C0D9D1DFC0180829182A282AD
:1019E000B38281E0BCCF803109F0B8CF44895589FA
:1019F000668977894D0D511D611D711D23E0CF0151
:101A000080960E943E0B009709F4A8CFDD24EE24B7
:101A1000FF24CC0CDD1CC80ED91EF60111830083F7
:101A2000E0CFCF92DF92EF92FF920F931F93CF936D
:101A3000DF93423051056105710550F48FEFDF915E
:101A4000CF911F910F91FF90EF90DF90CF9008956D
:101A5000FC01C08CD18CE28CF38CC416D506E60652
:101A6000F70660F389016A017B01EC018581803210
:101A7000B9F584899589A689B789E7E07695679550
:101A800057954795EA95D1F7480F591F6A1F7B1F55
:101A900022E0CE0180960E943E0B009779F2E894F6
:101AA000C7F8DD24EE24FF24CC0CDD1CCC0CDD1C9F
:101AB0008C0D9D1DFC0180819181A281B381BF703D
:101AC000488D598D6A8D7B8D481759076A077B07AA
:101AD00038F1F80180839183A283B38381E0AFCF93
:101AE000803109F0ABCF44895589668977894D0DDE
:101AF000511D611D711D22E0CF0180960E943E0B99
:101B0000009709F49BCFDD24EE24FF24CC0CDD1CD0
:101B1000C80ED91EF60180819181B0E0A0E0D0CF3F
:101B200080E08DCF0F931F93CF93DF938C01EB0158
:101B3000FC0144895589668977898681978120E0EF
:101B400080960E943E0B009709F443C0F801A481DF
:101B5000B581AF70BB2725E0AA0FBB1F2A95E1F71F
:101B6000A80FB91F1097A9F1AD0138E070E080E02F
:101B70006EE2FA019191AF019032F1F0883039F4C0
:101B80009E01270F311DF90160837F5F30E18A01DB
:101B900001501109F80190812FEB290F2A3130F4FF
:101BA0001C962C911C97232309F0905E8E01070F41
:101BB000111DF80190837F5F8F5F8B30D1F6FE019E
:101BC000E70FF11D108281E0DF91CF911F910F91FE
:101BD000089580E0F9CFFC019C01255F3F4F80E034
:101BE00080FB879587F99191890F2E173F07C1F7E1
:101BF0000895CF93DF93FC012081211104C081E07F
:101C0000DF91CF910895EC01828182FF39C0448930
:101C10005589668977898681978121E080960E941F
:101C20003E0B009729F489818160898380E0E8CFA9
:101C3000EC81FD81EF70FF2725E0EE0FFF1F2A9555
:101C4000E1F7E80FF91F309771F38081853E59F372
:101C5000888183FF08C0888D998DAA8DBB8D848F64
:101C6000958FA68FB78F8C8D9D8D938F828F8C8D46
:101C70009D8DAE8DBF8DB58BA48B8A818B7F8A8322
:101C80008E819F8180960E94FC0A882361F2B7CFE3
:101C90004F925F926F927F928F929F92AF92BF927C
:101CA000CF92DF92EF92FF920F931F93CF93DF9328
:101CB000EC014A015B014C845D846E847F84A881C1
:101CC000AA2309F486C0488959896A897B894815FD
:101CD00059056A057B0569F081149104A104B104DA
:101CE00051F41C861D861E861F86888A998AAA8AB8
:101CF000BB8A81E073C0A3FF59C0088D198D2A8D5E
:101D00003B8D081519052A053B0508F462C0EE81D4
:101D1000FF81848190E009968A019B01015011099D
:101D200021093109082E04C0369527951795079586
:101D30000A94D2F775016401B1E0CB1AD108E10829
:101D4000F10804C0F694E794D794C7948A95D2F723
:101D5000C016D106E206F30628F0452B462B472B8A
:101D600009F052C0A6FF4BC0848D958DA68DB78D0E
:101D70008C879D87AE87BF878E01045F1F4FC1147C
:101D8000D104E104F10409F4B0CF4C855D856E8582
:101D90007F8598018E819F810E94110D91E0C91A63
:101DA000D108E108F108181654F313C0A5FFAFCF0E
:101DB000EE81FF818681978125E0880F991F2A9502
:101DC000E1F7B0E0A0E088159905AA05BB0508F089
:101DD0008CCF4C865D866E867F8680E0DF91CF91CA
:101DE0001F910F91FF90EF90DF90CF90BF90AF9039
:101DF0009F908F907F906F905F904F9008958C8D03
:101E00009D8DAE8DBF8DB4CFC01AD10AE20AF30A00
:101E1000B3CFCF93DF93EC010E94F90D1882DF91CD
:101E2000CF9108953F924F925F926F927F928F92DF
:101E30009F92AF92BF92CF92DF92EF92FF920F9359
:101E40001F93CF93DF9300D000D0CDB7DEB74C0106
:101E5000FC01828184608283A680B780448455849B
:101E600066847784F501C084D184E284F384C41449
:101E7000D504E604F70410F011E003C07301620119
:101E800010E0FFEFCF1ADF0AEF0AFF0AF501808D9D
:101E9000918DA28DB38D8C159D05AE05BF0538F4CF
:101EA000111131C0C084D184E284F384E5CF4C1495
:101EB0005D046E047F0439F19E012F5F3F4FB7012F
:101EC000A601C5010E94110D87FD1DC08823C9F21E
:101ED00089819A81AB81BC81892B8A2B8B2B89F6D6
:101EE000112329F0F501C086D186E286F3860FEF33
:101EF0001FEF2FEF3FE0B701A601C5010E949F0C25
:101F0000382E811118C0312C832D0F900F900F9017
:101F10000F90DF91CF911F910F91FF90EF90DF9085
:101F2000CF90BF90AF909F908F907F906F905F9079
:101F30004F903F900895411451046104710431F4AD
:101F4000F401C486D586E686F786DECF9701860142
:101F5000B301A201C5010E949F0C8111F1CFD3CF23
:101F600080919701909198019093040180930301CF
:101F7000809195019091960101979093960180939D
:101F80009501892B19F485E08093180308958091B9
:101F90009E01909124039130B9F4813071F028E7CB
:101FA00030E030930401209303018823A1F0809155
:101FB0009E01815080939E01089584EF91E090935B
:101FC000040180930301F3CF20EA30E0813049F728
:101FD00082EA95E0F4CF8091A70187FF12C083E1E8
:101FE00080939E018091A701880F8093A701809123
:101FF000A90181508093A90110920401109203015C
:10200000D6CF89E0EDCFE1E8F0E08081887F808362
:1020100081E080931D0383EA94E00E94090F1092EF
:10202000190310921A0310921B0310921C031092B2
:1020300087011092080310928A010895BC0190E074
:1020400080E00E94953B20E030E040E650E40E94B2
:10205000ED3A20E030E040E05FE30E94813A0E94E8
:10206000663BCB0108959091A90180919E019B3020
:1020700009F065C0882309F46FC0813031F420EA8B
:1020800031E030930401209303018F5F80939E0120
:102090002091030130910401203D310509F068C011
:1020A0009091A9019330D0F09091A9019B30B0F4A8
:1020B0008230A1F48091A20191E089278093A2014E
:1020C0008091A70190E0959587958093A7018091D5
:1020D000A90181508093A90110929E018091A901CC
:1020E000813059F480919E01863039F48091A901A4
:1020F00081508093A90110929E018091A9018230A4
:1021000021F08091A9018B3059F480919E01823099
:1021100039F48091A90181508093A90110929E0108
:102120008091A901811136C08091A101882391F18C
:102130008FEF8093060185E08093170308959091B7
:10214000A901923061F4882339F0813009F09DCFE4
:102150009091A201911193CF20ED30E092CF909118
:10216000A9019130C9F39091A70190FDF5CF82CFDD
:10217000823081F48091A901833058F28091A901C5
:102180008B3038F68091A70190E0959587958093E4
:10219000A701BFCF08950F931F93CF93DF93C82F4D
:1021A0008CE30E940C0580E490E00E949F09C052DD
:1021B000DD0B83E0CC0FDD1F8A95E1F7CD57DF4FB4
:1021C00010E000E0FE01E00FF11F64918FE894E061
:1021D0000E9470090F5F1F4F0830110599F781E0C9
:1021E000DF91CF911F910F910C946107CF93C82F6E
:1021F0008CE30E940C0580E490E00E949F096C2F04
:102200008FE894E00E94700981E0CF910C946107FF
:102210000F931F93CF93DF93EC0188818823C1F044
:1022200010E000E0E881E052FF0B83E0EE0FFF1FBB
:102230008A95E1F7E00FF11FED57FF4F84910E945F
:10224000F6100F5F1F4F0830110561F72196E5CF9B
:10225000DF91CF911F910F910895CF93C82F8CE3F9
:102260000E940C0580E890E00E949F096C2F8FE887
:1022700094E00E94700981E0CF910C946107CF93A4
:10228000C82F80EB860F0E942D118C2F880F880F8E
:10229000880F88708E5F0E942D1128E0C29FC001B8
:1022A000112424E0959587952A95E1F78F70805F3A
:1022B000CF910C942D11CF93DF93C0E06C2F80E071
:1022C0000E943F11D0E080E00E94F610DF5FD0381E
:1022D000D1F7CF5FC43091F7DF91CF9108950F937D
:1022E0001F93CF93DF93EC01862F642F0E943F1141
:1022F00088818823D1F010E000E0E8810E2E000CE8
:10230000FF0BB09783E0EE0FFF1F8A95E1F7E00F18
:10231000F11FED57FF4F84910E94F6100F5F1F4F82
:102320000830110551F72196E3CFDF91CF911F912E
:102330000F910895CF93C091FF0160E088E0CA300B
:1023400050F40E943F1180E38C0F0E94CB1085E275
:10235000CF910C94CB10C43658F40E943F118C2FAF
:102360006AE00E94233CC92F805D0E94CB10EBCF16
:102370000E943F1181E30E94CB1080E30E94CB10AA
:1023800080E3E3CF0F931F93CF938C01C62F80E0A0
:102390000E943F1181E391E00E9408116C2F80E0C0
:1023A0000E943F11C801CF911F910F910C94081109
:1023B00004960C94F90D40E050E0BA010C94480EDC
:1023C00090E080E00895CF92DF92EF92FF920F931A
:1023D0001F93CF93DF93FC0180E2DF011D928A956A
:1023E000E9F7EB01AE81BF81B783A68355834483B0
:1023F000CC8CDD8CEE8CFF8CC086D186E286F38699
:102400004F705527ED01A79695E0440F551F9A95FB
:10241000E1F7BE01640F751FEB018B8583FD49C099
:10242000CD01840F951FEC018AA987718083EB0190
:102430009B85987111F488608083238381E0828377
:1024400093960D911D912D913C919697048B158B30
:10245000268B378BA40FB51FDB964D915C91DC97D3
:1024600070E060E0BA0155274427ED01CF5BDF4FF4
:102470000881198130E020E0402B512B622B732B17
:10248000448F558F668F778FAD5BBF4F8D919D9138
:102490000D90BC91A02D808F918FA28FB38F81E082
:1024A000DF91CF911F910F91FF90EF90DF90CF9030
:1024B0000895108280E0F4CFFC01808181110FC06B
:1024C00080E2DF01982F1D929A95E9F77783668362
:1024D000DB0115969C91903129F0903211F080E04B
:1024E000089580E4808381E082830895CF93C82F8C
:1024F0008AEE96E00E94090F63EC74E08AEE96E0A3
:102500000E945C12882369F0CC2359F08091EA067E
:10251000807749F08AEE96E0909388048093870450
:102520008C2FCF91089580E0FCCF2F923F924F9255
:102530005F926F927F928F929F92AF92BF92CF9253
:10254000DF92EF92FF920F931F93CF93DF93EC01F3
:102550005B014A01888183FFC5C08A8181FFC2C0B7
:1025600083FDB7C0A40170E060E088899989AA89D9
:10257000BB8980959095A095B09584179507A6077F
:10258000B70708F4AFC064011E018CE0280E311CAF
:10259000088919892A893B89C114D10409F4E1C049
:1025A0008E819F81B901A80129E07695679557959D
:1025B00047952A95D1F7DC011396FC90F42211700F
:1025C000F1101BC04C855D856E857F850115110559
:1025D00009F0F4C0411551056105710509F488C081
:1025E00091010E94110D87FD7DC0811106C0CE01B1
:1025F0000E94120F882309F475C0EE81FF814C857B
:102600005D856E857F85425051096109710984811C
:1026100004C0440F551F661F771F8A95D2F7808923
:102620009189A289B389840F951FA61FB71FAC019A
:10263000BD014F0D511D611D711D0115110529F4BD
:10264000C114B2E0DB0608F06EC080E092E0801BAF
:10265000910B76018C159D0508F47C01011511057F
:1026600071F4488859886A887B88888D998DAA8DED
:10267000BB8D25E0481659066A067B0608F421E062
:10268000CF0180960E943E0B009761F1A701B50132
:10269000800F911F0E946A3C0E0D1F1D01151240F4
:1026A00039F48E819F8180960E94FC0A8823D1F0A4
:1026B00088899989AA89BB898E0D9F1DA11DB11D8D
:1026C000888B998BAA8BBB8BAE0CBF1CCE18DF08F6
:1026D0005FCF488D598D6A8D7B8DCE010E94480E4B
:1026E000811140CF8981816089838FEF9FEF4DC039
:1026F0008C8D9D8DAE8DBF8D0097A105B10571F4B8
:10270000CE010E94120F882369F38C859D85AE85CA
:10271000BF858C8F9D8FAE8FBF8F6FCF8C879D872E
:10272000AE87BF876ACF83A194A1A5A1B6A14817A0
:1027300059076A077B0741F410A28FEF9FEFDC0176
:1027400083A394A3A5A3B6A3EE81FF819501808105
:1027500091810E94370A882329F2E12C82E0F82E29
:10276000A7CF888D998DAA8DBB8D80179107A20761
:10277000B30738F48A81088F198F2A8F3B8F8460C2
:102780008A838A8187FD14C0C401DF91CF911F9194
:102790000F91FF90EF90DF90CF90BF90AF909F9000
:1027A0008F907F906F905F904F903F902F90089503
:1027B000CE010E94F90D8111E7CF94CFFC01425068
:1027C000510961097109848104C0440F551F661FB6
:1027D000771F8A95D2F780899189A289B389480F9A
:1027E000591F6A1F7B1F31CF04960C949512CF930B
:1027F000DF931F92CDB7DEB7698341E050E0BE01A1
:102800006F5F7F4F04960E9495120F90DF91CF91DA
:1028100008954F925F926F927F928F929F92AF92A4
:10282000BF92CF92DF92EF92FF920F931F93CF93BD
:10283000DF93EC015B018A018881882309F4C1C020
:102840009A8190FFBEC083FF16C0888D998DAA8D96
:10285000BB8D488959896A897B89841B950BA60B96
:10286000B70BA80170E060E0481759076A077B07BB
:10287000A0F08C0112C085FF10C0EE81FF8186811F
:10288000978155E0880F991F5A95E1F72889398972
:10289000821B930B8017910760F378012E012CE0C7
:1028A000420E511C612C42E0742EE114F10409F433
:1028B000B5C088899989AA89BB894C0121E09222F7
:1028C0002881EE81FF81AC01BD0139E076956795E5
:1028D000579547953A95D1F725FF29C0848D958D59
:1028E000A68DB78D480F591F6A1F7B1FEE81FF8190
:1028F0008114910409F06BC0E11482E0F80608F439
:1029000066C083A194A1A5A1B6A1481759076A077B
:102910007B0709F45CC09501808191810E949D0A2A
:10292000882309F44EC0C12C82E0D82E66C0D38023
:10293000D4228114910481F4D1100EC0892B8A2BEA
:102940008B2B81F526FF29C0848D958DA68DB78DA3
:102950008C879D87AE87BF87EE81FF814C855D8523
:102960006E857F854250510961097109848104C0D7
:10297000440F551F661F771F8A95D2F7808991896A
:10298000A289B389840F951FA61FB71FAC01BD0193
:102990004D0D511D611D711DA9CF8C8D9D8DAE8D6D
:1029A000BF8DD6CF4C855D856E857F859201CF0129
:1029B0000E94110D87FD05C08111CECF88818077DF
:1029C00069F58981826089838FEF9FEF2AC0C301F7
:1029D0008819990967018E159F0508F46C0120E09C
:1029E000CF0180960E943E0B009759F3BC01680D01
:1029F000791DA601C5010E946A3CAC0CBD1C8889EA
:102A00009989AA89BB898C0D9D1DA11DB11D888B3B
:102A1000998BAA8BBB8BEC18FD0847CFC8018E1988
:102A20009F09DF91CF911F910F91FF90EF90DF9061
:102A3000CF90BF90AF909F908F907F906F905F905E
:102A40004F900895EF92FF920F931F93CF93DF93D0
:102A50001F92CDB7DEB77C01962FF70140895189CF
:102A6000628973898A019B0185E0369527951795C0
:102A700007958A95D1F70F7011F091112BC041E0A5
:102A800050E0BE016F5F7F4FC7010E940914813083
:102A900051F090E080E00F90DF91CF911F910F9166
:102AA000FF90EF900895F70180899189A289B389F9
:102AB0004F96A11DB11D808B918BA28BB38BF7011B
:102AC000868197818796F0E20F9F90011124820FF3
:102AD000931FE1CF405E5F4F6F4F7F4F408B518B15
:102AE000628B738BECCF2F923F924F925F926F92DB
:102AF0007F928F929F92AF92BF92CF92DF92EF928E
:102B0000FF920F931F93CF93DF9300D01F92CDB707
:102B1000DEB77C017B836A83FA016115710509F4D4
:102B2000E5C0DB018C91807709F4E0C0D7018C917E
:102B30008111DCC0C180D28080818370882483941D
:102B4000882349F0C6010C966DE070E00E942F3C8E
:102B500088248394860E8F018A819B810E94DB11D9
:102B60001982212C312C912C5801B6E0AB0EB11CEE
:102B7000EA81FB81408851886288738861E0CF01D7
:102B80000E942215009709F4B1C0DC012C91253E6A
:102B900009F4A6C0222309F4C0C0381470F12E3203
:102BA00051F1FC0133853F3009F05DC0911027C021
:102BB00026FFDECF2F71922EF585F983222EE22D8E
:102BC000E150FF0BAF01FDE0F49F9001F59F300D48
:102BD00011242C153D0578F4FC01712C64E0671577
:102BE000B0F081819281C216D306D1F4892B19F4F9
:102BF000BFCF253EA1F6912CBBCF312CD0CF2A944C
:102C00002211F9CF2585B9812B17C9F2F4CF8AE0BB
:102C1000871518F084819581E6CF86819781E3CF6F
:102C20008F3F910509F038F74FEB480F4A3108F410
:102C3000805EB9016F5F7F4FD80113964D915C9113
:102C4000240F351FD9019C912FEB290F2A3108F44D
:102C5000905E9813D0CF73943296BDE07B1609F442
:102C600087CF9B01BBCF33FDC6CF992061F1E1E057
:102C70002E123CC00E94EB0DF981F81337C0B3014E
:102C8000A20185E076956795579547958A95D1F786
:102C9000292D6A817B81C7010F900F900F90DF91E2
:102CA000CF911F910F91FF90EF90DF90CF90BF9049
:102CB000AF909F908F907F906F905F904F903F90DC
:102CC0002F900C94E3114BE050E0B5010E945D3C65
:102CD000892B09F04DCFD8018C9180FD49CFCFCF02
:102CE000381408F088CF3394211183CF80E00F90FF
:102CF0000F900F90DF91CF911F910F91FF90EF9068
:102D0000DF90CF90BF90AF909F908F907F906F900B
:102D10005F904F903F902F900895381420F3E6CFA6
:102D20002F923F924F925F926F927F928F929F92DB
:102D3000AF92BF92CF92DF92EF92FF920F931F93C9
:102D4000CF93DF93CDB7DEB7E7970FB6F894DEBF2A
:102D50000FBECDBF7C018A0119821A82DC018C91E1
:102D60008823D1F080E0E7960FB6F894DEBF0FBE5F
:102D7000CDBFDF91CF911F910F91FF90EF90DF902A
:102D8000CF90BF90AF909F908F907F906F905F900B
:102D90004F903F902F9008956115710519F3FB0135
:102DA00080818077F9F2DA018C91FA018F3209F48F
:102DB000A2C0FE01F296FFABEEABF8019F012F5FC0
:102DC0003F4F8081803209F4AEC0FDA3ECA39F0188
:102DD000A9014E1B5F0B8901D9018D919D018823AB
:102DE00071F08F3209F0A1C0CF01840F951F8C01C3
:102DF000DC012D91CD012032D1F32F32C1F3DA0164
:102E0000AE0FBF1FAD014E1B5F0BEA17FB0709F4A6
:102E1000A6C08E918E32B1F38032A1F34F3F51059F
:102E200011F00CF09FCF5BA34AA3DE0197966D01D2
:102E300080E28D93AEA8BFA8AA16BB06D1F7DF012A
:102E4000CD018E1B9F0B2D912E32D1F32032C1F379
:102E500077247394009709F0712C9A01215031095D
:102E60005F01A40EB51E2F3F320709F07BC08EA074
:102E7000512CB7E0BAAB312C612CA8E04A2E841754
:102E800095070CF0AEC0DF01A80FB91FAC90ADAA3A
:102E9000AA2DA03209F4A3C0AE3221F48217930701
:102EA00009F09DC09DA8B92DB232A9F0BC3799F0A8
:102EB000BA52B63018F4A92DAD3269F4BDA9BA538F
:102EC000B63048F0BDA9BB55B33028F0BDA9B1520A
:102ED000BE3508F451C08217930709F0C1C08AA912
:102EE0008A3009F4C8C0C901BAE0BAABA8E03A2EEA
:102EF000B0E14B2E60C08F0181918F32E1F3DB0195
:102F000016966D917C91811104C0C7010E945C12DC
:102F10002ACFCE0101960E945C12BE016F5F7F4FE7
:102F2000811147CF1FCFF90149CF8C3509F41ACF52
:102F3000982F977F923209F415CF8A3309F412CF74
:102F4000982F9F7B9C3309F40DCF92EC980F923011
:102F500008F408CF80528F3508F43ACF03CF50E001
:102F600040E061CFD5019E905D01BEE29B1609F461
:102F70007ECF2150310977CF8217930709F4AFCF65
:102F8000BAA9B31508F470C0BDA9B156BA31D0F4CE
:102F9000ADA9A052ADAB542822242394230C560192
:102FA000A30CB11CD501ADA8AC92A6E0BA2E322C70
:102FB000B21408F0822C019662CF712CBFE5BDAB34
:102FC000BFE59B2EBFEBB90DBA3130F76428E4CFD3
:102FD000C901AAE0AAABA8E03A2EB0E14B2E712CB1
:102FE000EACF8EA28FA1803209F4BCCE772011F1F6
:102FF000852D862111F082E0582E59A2F80180819A
:10300000AE014F5D5F4F882339F1C7010E947315F0
:10301000882309F4A7CE80E2F701DE011196019022
:103020000D928A95E1F7C7010E94090FBE016F5FFB
:103030007F4FC3CE81E089A3912CF601E80DF91DE5
:103040008EE78083E8E2F0E0EC0FFD1F8E0E9F1EFE
:1030500081E3D4018C93D2CFC7010E94731583CE34
:10306000AAA9A31508F0A9CFBAA9BA3021F0281748
:1030700039070CF0ADCF8EA2712CB4CFCF93DF9374
:10308000CDB7DEB7A0970FB6F894DEBF0FBECDBFA9
:1030900019821A82FC0120812F3279F421812111B9
:1030A0000CC081E00E947612A0960FB6F894DEBFA5
:1030B0000FBECDBFDF91CF910895AC016AEE76E0EF
:1030C000CE0101960E949016882371F39981907722
:1030D000A1F090E2FE013196AAEEB6E001900D92C9
:1030E0009A95E1F79091EA069077F1F22AEE36E0B0
:1030F0003093880420938704D7CF80E0D5CFCF9238
:10310000DF92EF92FF920F931F93CF93DF93209163
:10311000A304211115C0009799F0FC0120812077AC
:1031200079F040895189628973894F7155276627E3
:1031300077278C01C0E0D0E0452B462B472B59F078
:1031400080E0DF91CF911F910F91FF90EF90DF9082
:10315000CF900895C0E0F801C088D188E288F38854
:1031600060E0C8010E942215009751F3FC01208104
:10317000222331F32E3271F3253E61F3338533FD83
:103180001DC0CC2321F00E94EB0D8D13D9CFB701C8
:10319000A60185E076956795579547958A95D1F76D
:1031A0002C2FB80183EA94E0DF91CF911F910F910A
:1031B000FF90EF90DF90CF900C94E3113F3051F6E9
:1031C00026FFC9CFC22FCF71D585C5CFCF93DF934F
:1031D00080918704909188040E94DB11109226034D
:1031E00010922503C0918704D0918804CE010E94DB
:1031F0007F18882371F083EA94E00E94090F809180
:10320000250390912603019690932603809325032E
:10321000E9CFCE01DF91CF910C94DB112F923F9239
:103220004F925F926F927F928F929F92AF92BF92D6
:10323000CF92DF92EF92FF920F931F93CF93DF9382
:10324000CDB7DEB7A0970FB6F894DEBF0FBECDBFE7
:103250007C018B0119821A82DC018C91882309F48C
:10326000C7C013969C91911127C0807601F18FE21F
:10327000FB018083118299249394892DA0960FB627
:10328000F894DEBF0FBECDBFDF91CF911F910F919C
:10329000FF90EF90DF90CF90BF90AF909F908F9076
:1032A0007F906F905F904F903F902F900895C7014F
:1032B0000E94920D982EE1CFF70180859185A2851D
:1032C000B385668177819E012F5F3F4F590100973B
:1032D000A105B10509F072C0C9010E945C128823E2
:1032E00009F486C066246394712CD12CC12C28016A
:1032F000F3E64F0E511CD70113968C911397861548
:1033000008F476C014964D915C914619570970E007
:1033100060E085E0440F551F661F771F8A95D1F73F
:10332000C5010E94480E982E882309F461C060E010
:10333000C5010E942215FC01892B09F459C083851F
:103340008F3009F055C080818F71681251C0A8017B
:103350004C0D5D1D1F01960160E0D1016530F0F557
:1033600011968D919C91009799F024363105D0F4F7
:103370008F37910510F08FE390E02F5F3F4FDA0118
:103380008D93AD016F5FB2E02B0E311C6D3029F7CC
:103390002436310538F4808186FF04C0200F311FA8
:1033A000D9011C92D2011C92BDE0CB0ED11C2FEF93
:1033B000621A720A808186FF9ECF5FCF2CE1F501F1
:1033C00011922A95E9F720E1298321E02B83788760
:1033D0006F838D8F9E8FAF8FB8A384CF6B3020F417
:1033E00014968D919C91BFCF16968D919C91BBCFD9
:1033F000D8011C92912C41CF0F931F93CF93DF9351
:1034000000D000D0CDB7DEB7AB01BC0183EA94E0B9
:103410000E94480E882309F440C044E050E0BE01F9
:103420006F5F7F4F83EA94E00E9409148430910516
:10343000A1F44091190350911A0360911B037091FC
:103440001C034C5F5F4F6F4F7F4F409319035093A6
:103450001A0360931B0370931C034B815C8170E023
:1034600060E0BA015527442709811A8130E020E045
:10347000402B512B622B732B40939101509392015F
:1034800060939301709394010F900F900F900F90A1
:10349000DF91CF911F910F91089590E080E0DDCFF3
:1034A000CF93DF9300D01F92CDB7DEB7AB01BC0145
:1034B00083EA94E00E94480E8823C1F143E050E083
:1034C000BE016F5F7F4F83EA94E00E94091483304E
:1034D0009105A1F44091190350911A0360911B03C7
:1034E00070911C034D5F5F4F6F4F7F4F40931903E7
:1034F00050931A0360931B0370931C034A815B81F2
:1035000070E060E0762F652F542F44272981422BED
:1035100040939101509392016093930170939401B1
:103520000F900F900F90DF91CF91089590E080E081
:10353000E5CFCF93DF9300D0CDB7DEB7AB01BC01B1
:1035400083EA94E00E94480E882359F142E050E05B
:10355000BE016F5F7F4F83EA94E00E9409148230BE
:103560009105A1F44091190350911A0360911B0336
:1035700070911C034E5F5F4F6F4F7F4F4093190355
:1035800050931A0360931B0370931C0329813A81A3
:103590003093900120938F010F900F90DF91CF9186
:1035A000089590E080E0F2CFCF93DF931F92CDB7E4
:1035B000DEB7AB01BC0183EA94E00E94480E882389
:1035C00039F141E050E0BE016F5F7F4F83EA94E044
:1035D0000E94091481309105A1F440911903509182
:1035E0001A0360911B0370911C034F5F5F4F6F4F75
:1035F0007F4F4093190350931A0360931B037093FA
:103600001C0329812093A8010F90DF91CF91089589
:1036100090E080E0F6CF8091A90181113FC06091D8
:10362000190370911A0380911B0390911C030E944F
:10363000D41A019709F04AC08091A8018093A7018C
:103640008091A3019091A401A091A501B091A60140
:103650000197A109B1098093A3019093A401A093BC
:10366000A501B093A6011092A201892B8A2B8B2B66
:1036700081F481E08093A10180919F019091A0014C
:10368000892B21F486E08093180303C085E08093A2
:1036900017038BE08093A90110929E018091A901EC
:1036A000823039F480919D01811103C081E08093C3
:1036B000A9018091A90120919B0130919C018B303F
:1036C00039F4309304012093030116C085E0DBCF69
:1036D0008091A901823009F044C080919D018170E0
:1036E0009091A2018917D1F19091990180919A014D
:1036F000909303018093040180919E018F5F8093DA
:103700009E01409103015091040142175307D9F5DE
:103710009091020189134AC08091A901823058F02A
:103720008091A9018B3038F48091A70190E09595A4
:1037300087958093A7018091A90181508093A90169
:1037400010929E018091A101882381F18091A901AD
:1037500081112CC085E0809318030895922F832F48
:10376000C7CF8091A901813049F48091990190914E
:103770009A019093040180930301BECF8091A70129
:1037800080FDF3CF9ECF9091010189130FC08091EE
:10379000A901823080F28091A9018B3060F680917E
:1037A000A20191E089278093A201BECF0895809164
:1037B000A9018111ACC06091190370911A03809125
:1037C0001B0390911C030E94D41A209108030197B7
:1037D00009F06DC08091A8018093A7018091A30199
:1037E0009091A401A091A501B091A601253009F006
:1037F00056C02FEF2093A70124E0209308034091A7
:10380000190350911A0360911B0370911C034150DE
:103810005109610971094093190350931A03609388
:103820001B0370931C030296A11DB11D8093A3017D
:103830009093A401A093A501B093A6019091A70134
:10384000809187018927809387018091A3019091BE
:10385000A401A091A501B091A601892B8A2B8B2BE5
:1038600009F044C08091190390911A03A0911B03A1
:10387000B0911C030197A109B1098093190390939A
:103880001A03A0931B03B0931C0380919F01909196
:10389000A001892B41F481E08093180308950197DA
:1038A000A109B109C3CF85E080931703089524309F
:1038B00021F081E080931503E8CF80918701809308
:1038C000A7018091A3019091A401A091A501B091BD
:1038D000A6010196A11DB11D8093A3019093A4019F
:1038E000A093A501B093A601109208038091A301B3
:1038F0009091A401A091A501B091A6010197A10505
:10390000B10529F188E08093A90110929E01809170
:10391000A70187FF1FC08091990190919A01909310
:1039200004018093030180919E018F5F80939E012B
:10393000823061F48091A701880F8093A701809164
:10394000A90181508093A90110929E010895809150
:103950000001D9CF80919B0190919C01E0CF809193
:103960001703833071F128F4813049F08230F9F087
:103970000895843081F1853009F495C008958091CF
:103980009701909198019093040180930301809195
:1039900095019091960101979093960180939501DE
:1039A000892B09F098C082E08093170308958091D5
:1039B000830190918401909304018093030183E03B
:1039C000F3CF8091810190918201909304018093C3
:1039D000030184E0E9CF809108039CEF980F9230B7
:1039E00010F0811102C00C94D71B8091A9018111A4
:1039F0002DC080910703833149F480918701809322
:103A0000A70182E08093080385E0CECF8F5F80938B
:103A10000703843108F03FC0E82FF0E0E25FFB4F7E
:103A2000E491E093A7018D3089F58091BB03835029
:103A30008093A7019091A7018091870189278093A6
:103A4000870188E08093A90110929E018091A701CF
:103A500087FF24C08091990190919A01909304016D
:103A60008093030180919E018F5F80939E0182303D
:103A700091F58091A701880F8093A7018091A901FA
:103A800081508093A90110929E0108958E3091F685
:103A90008091BC03CDCF80910001D4CF80919B0158
:103AA00090919C01DBCF2091140380919F01909114
:103AB000A0012E3F89F02B3F79F0909386018093EF
:103AC000850189E58093140380911503813019F4F1
:103AD0008FEF80931403089590689093040180936E
:103AE000030110921703F0CF8091A901811128C022
:103AF0006091190370911A0380911B0390911C032C
:103B00000E94D41A0197F1F48091A8018093A70133
:103B10008091A3019091A401A091A501B091A6016B
:103B20000197A109B1098093A3019093A401A093E7
:103B3000A501B093A60189E08093A90110929E018E
:103B40000C94C70F80919F019091A00190938601E2
:103B50008093850189E580931403EDCF8F929F9226
:103B6000AF92BF92CF92DF92EF92FF920F931F938B
:103B7000CF93DF93D82FC92F10920D0710920A0709
:103B800010920F0780E197E090930C0780930B074A
:103B90000E94EF066B0100910B0710910C078AE061
:103BA000F801828361E00E94660661E0F80182818B
:103BB0000E9438061FB7F89480918604811127C0AF
:103BC000ECECF8E08491E8EBF8E09491E82FF0E079
:103BD000EE0FFF1FEC55F74FA591B491EC91E9233F
:103BE00021F461E08AE00E94380661E08AE00E94E8
:103BF00066068CB580618CBD8CB580648CBD61E03F
:103C00008DE00E94660661E08BE00E94660680916E
:103C100086048F5F809386041FBFE0910B07F091AD
:103C20000C0782E58083118280910D07811104C009
:103C30008AE097E00E94A409E0910B07F0910C073D
:103C400061E082810E9438061AE08FEF0E94B80975
:103C50001150D9F7E0910B07F0910C0760E08281D9
:103C60000E9438061AE020E030E0A90160E08AE016
:103C700097E00E94F409082F813029F11150A9F42E
:103C800080E280930A078AE097E00E94DF0980E0E3
:103C9000DF91CF911F910F91FF90EF90DF90CF9028
:103CA000BF90AF909F908F9008958DEF0E94B809BC
:103CB00098E0A92E92E0B92E0E94BD09F1E0AF1A5A
:103CC000B108D1F7D0CF2AEA31E040E050E068E017
:103CD0008AE097E00E94F40914E0853041F50093F2
:103CE0000F0780910F07812C912C5401823029F409
:103CF000812C912CA12C80E4B82E20E030E0A90189
:103D000067E38AE097E00E94F409A501940169E263
:103D10008AE097E00E94F4098823B9F00E94EF0638
:103D20006C197D09613D774040F383E4AACF0E947E
:103D3000BD0980930E071150D1F78A3A21F482E031
:103D400080930F07CECF85E29CCF80910F07823002
:103D5000D1F420E030E0A9016AE38AE097E00E9414
:103D6000F409882311F087E38CCF0E94BD09807C81
:103D7000803C19F483E080930F070E94BD090E94E4
:103D8000BD090E94BD098AE097E00E94DF09E09129
:103D90000B07F0910C07D083C1838AE097E09093E2
:103DA000C4048093C3048AEE96E00E94090F81E068
:103DB0000E947D0B8823A9F063EC74E08AEE96E004
:103DC0000E945C12882309F462CF9091EA069077F2
:103DD00009F45DCF2AEE36E03093880420938704FF
:103DE00057CF80E00E947D0B8111E6CF50CFEF923C
:103DF000FF920F931F93CF93DF93CDB7DEB76197F9
:103E00000FB6F894DEBF0FBECDBF209134044091B1
:103E10003504CE01019630E0442391F14EE349830D
:103E2000FC0150E040E00FEC13E0D8010D900020C1
:103E3000E9F7A05DB340B901640F751F6A177B07EE
:103E4000E8F461537C4FDB016C9161834F5F5F4FFE
:103E500031964F30510549F7198A61E070E00E94B0
:103E6000C21161960FB6F894DEBF0FBECDBFDF91D1
:103E7000CF911F910F91FF90EF9008951182E6CF9F
:103E8000FC0150E040E00FEC13E07901E81AF90A78
:103E9000D8010D900020E9F7BD01605D7340D701A6
:103EA000AE0FBF1FA617B70770F4DA01A20FB31F3A
:103EB000A153BC4F6C9160834F5F5F4F319640318F
:103EC000510531F7C9CF1082F7CFCF93DF9380919F
:103ED000CE038130D9F480918704909188040E94A8
:103EE000DB11C1E0D0E0809187049091880420919B
:103EF000110130911201C217D30744F40E947F18B8
:103F000083EA94E00E94090F2196EDCFC0918704C7
:103F1000D09188048091110190911201019719F4B8
:103F2000CE010E94DB11CE010E947F186FEC73E07E
:103F300083EA94E00E940E198091A304882341F043
:103F4000807609F446C08FE28093C1031092C203C9
:103F50008091BB049091BC04A091BD04B091BE04BB
:103F60008093BD039093BE03A093BF03B093C0039F
:103F700003969093BC038093BB038091A304807746
:103F800079F562E471E081EC93E00E947E3C892B3C
:103F900039F11092350483EA94E00E94090F1092DF
:103FA000AB038091350466E978E0813011F068E870
:103FB00078E08BEA93E00E94BB3970E060E08BEA26
:103FC00093E00E94C21110923404DF91CF910C94BF
:103FD000F71E61EC73E083EA94E00E94920DB8CF83
:103FE00081E080933504D7CF0F931F93CF93DF9356
:103FF0008C01EB0140E150E060E770E085E691E084
:104000000E94C63940E150E0B8012097C1F484E530
:1040100091E00E94C63950E040E070E060E085E643
:1040200091E00E946F1150E040E070E060E084E5B4
:1040300091E0DF91CF911F910F910C946F1187E266
:1040400093E00E94C639AE0170E060E085E691E041
:104050000E946F11AE0170E060E087E293E0E9CF6B
:104060000E94031080918A03813041F470E060E087
:1040700088E690E00E94F41F10928A03089585ED6F
:104080008093BC0080915E0490915F04A0916004D5
:10409000B09161040796A11DB11D23E0B695A795C7
:1040A000979587952A95D1F72091BC0024FD03C0F0
:1040B00010925C04089540915E0450915F046091F9
:1040C000600470916104452B462B472B69F30097E0
:1040D000A105B10541F025E32A95F1F7000001970C
:1040E000A109B109E1CF80915D040C944007CF9301
:1040F000DF93EB010E942E3A8883CE01DF91CF91AE
:104100000895FF920F931F93CF93DF938C01EB01E0
:10411000F8800E942E3AF81621F06F2DC8010E94F7
:10412000363ACE01DF91CF911F910F91FF90089504
:10413000CF92DF92EF92FF920F931F93CF93DF9373
:10414000CDB7DEB72B970FB6F894DEBF0FBECDBF4D
:10415000109204011092030180911803811134C060
:1041600040E050E0BA0183EA94E00E94480E8823C0
:1041700009F465C14AE050E0BE016F5F7F4F83EAFA
:1041800094E00E94091447E050E062EA73E0CE0137
:1041900001960E94AE39892B41F061E070E086E91A
:1041A00093E00E94F41F0E9403108AE090E0A0E0D8
:1041B000B0E08093190390931A03A0931B03B0936C
:1041C0001C0381E08093180380911803833081F5EC
:1041D00040E050E0BA0183EA94E00E94480E882350
:1041E00009F434C148E050E0BE016F5F7F4F83EABD
:1041F00094E00E94091448E050E068EC73E0CE01BE
:1042000001960E94AE39892B41F061E070E08CEBA1
:1042100093E00E94F41F0E94031010921903109261
:104220001A0310921B0310921C0382E08093180360
:10423000809118038430A1F540E050E0BA0183EA90
:1042400094E00E94480E882309F407C149E050E039
:10425000BE016F5F7F4F83EA94E00E94091449E03A
:1042600050E060EF73E0CE0101960E94AE39892BD9
:1042700041F061E070E083EE93E00E94F41F0E9441
:1042800003108CE090E0A0E0B0E0809319039093DD
:104290001A03A0931B03B0931C0385E080931803BB
:1042A00080911803853009F092C0609119037091D4
:1042B0001A0380911B0390911C030E94991A029784
:1042C00009F0D7C000918F011091900110938001E7
:1042D00000937F016091190370911A0380911B0371
:1042E00090911C030E94FC19049709F0C2C08091B0
:1042F000910190919201A0919301B09194018093CA
:10430000A3019093A401A093A501B093A6011092DC
:104310009D0104301140F1F50397A109B109809383
:10432000A3019093A401A093A501B093A60160916D
:10433000190370911A0380911B0390911C036F5F06
:104340007F4F8F4F9F4F6093190370931A03809391
:104350001B0390931C030E94D41A019741F480918F
:10436000A8018F3409F080C082E080939D01809184
:10437000190390911A03A0911B03B0911C0301969D
:10438000A11DB11D8093190390931A03A0931B03E1
:10439000B0931C0380912403811172C080EA91E0E4
:1043A00090939C0180939B0180ED90E090939A0103
:1043B000809399011092A1011092A90110929E017F
:1043C00086E0809318031092170310927E0180916B
:1043D0001803863009F0EDC020917F0130918001F3
:1043E000223141E0340709F4C7C108F086C0243007
:1043F00041E0340709F4DBC008F04BC0211531401F
:1044000009F4D5C08091190390911A03A0911B0360
:10441000B0911C034091A3015091A4016091A501AA
:104420007091A601840F951FA61FB71F80931903D3
:1044300090931A03A0931B03B0931C03BCC170E0BC
:1044400060E083E893E00E94F41FAFCE70E060E08C
:1044500089EA93E00E94F41FE0CE70E060E080ED16
:1044600093E00E94F41F0DCF853409F080CF81E0E6
:104470007CCF8FEF9FEF9093800180937F018ACF55
:104480008DE491E090939C0180939B0186EA90E0FB
:104490008DCF203181E0380709F408C12131314046
:1044A00009F0B0CF10917E0180911703811131C1C5
:1044B0006091190370911A0380911B0390911C0362
:1044C0000E94991A029791F480918F019091900126
:1044D000880F991F880F991F9093960180939501DB
:1044E00080ED90E0909398018093970181E0809314
:1044F00017031F5F10937E015CC0609119037091D8
:104500001A0380911B0390911C03263141E034076C
:1045100009F455C150F52431314009F073CF0E94A0
:10452000991A0297F9F480918F0190919001880F68
:10453000991F880F991F9093960180939501809100
:10454000190390911A03A0911B03B0911C030297C9
:10455000A109B1098093190390931A03A0931B0337
:10456000B0931C030E94B00F4DCF273141E03407B8
:1045700009F450C12F3F3F4F09F044CF0091A301F0
:104580001091A4012091A5013091A601DC01CB017D
:10459000800F911FA21FB31F8093190390931A03DA
:1045A000A0931B03B0931C030E9430202BC30E94D6
:1045B0000B1B809118038130D1F460911903709125
:1045C0001A0380911B0390911C030E94D41A019737
:1045D00009F038C18091A801809314031092A901B9
:1045E00010929E0182E0809318031092170380912D
:1045F0001803823009F006C3809114038B3209F44A
:10460000D6C508F0BEC1893109F456C508F064C1A9
:10461000823109F4D1C308F017C1803109F46CC2AA
:10462000813109F4FEC270E060E089E094E00E940C
:10463000F41F8091140340E16BEA73E090E00E9464
:10464000F93950E040E064E070E08BEA93E00E94CA
:104650006F1140E16BEA73E08091190390911A03A6
:104660000E94F93962E074E08BEA93E00E94BB3962
:1046700061E070E08BEA93E00E94C2114AE06BEACD
:1046800073E080917B0190917C010E94F93941E0B7
:1046900050E06AE070E08BEA93E00E946F1168E8F6
:1046A00073E180E090E00E94BC067ECF809117030A
:1046B00081115FC06091190370911A0380911B03EF
:1046C00090911C030E94991A0297B1F480912403DF
:1046D000811116C080918F0190919001880F991FD0
:1046E000880F991F909396018093950180ED90E03B
:1046F000909398018093970181E08093170359CF9D
:1047000080E491E0909396018093950186EA90E091
:10471000EFCF1130D9F40E94B00F809195019091A4
:104720009601892B09F045CF86E0809318038AEA29
:104730008093A70181E08093A1018AE08093A90181
:1047400010929E0182E080937E0133CF123071F48B
:1047500010929D010E940B1B8091A901811129CF0C
:1047600086E0809318031092170323CF133009F0CB
:104770003ECF0E94B00F1DCF6091190370911A03B4
:1047800080911B0390911C030E94991A029709F0D3
:104790002ECF80918F0190919001009761F09093BE
:1047A00086018093850129E52093140390689093F6
:1047B00004018093030185E080931803FACE0E94E0
:1047C000FC19049709F013CF809191019091920107
:1047D0009093900180938F0160918F01709190016F
:1047E00080919101909192010E945F3B70939001A2
:1047F00060938F0161157105F1F2709386016093EA
:10480000850129E520931403706870930401609377
:104810000301D1CF0E94991A029709F0E8CE809146
:104820008F01909190018C32914039F488E080930F
:10483000020180E180930101BECF82E080930201FA
:1048400084E0F8CF8FEFC8CE843109F42AC308F48E
:10485000FAC2853109F0E7CE809117038111A8C310
:104860006091190370911A0380911B0390911C03AE
:104870000E94991A029751F480918F0190919001B2
:104880000E941E1090938901809388016091190302
:1048900070911A0380911B0390911C030E94991A36
:1048A000029741F480918F01909190019093A00123
:1048B00080939F016091190370911A0380911B03EB
:1048C00090911C030E94D41A019709F03EC3809175
:1048D000A8018093000139C3823209F4B0C210F5F7
:1048E000803209F426C4813209F09DCE609119030B
:1048F00070911A0380911B0390911C030E94D41A9B
:10490000019709F09CC22091A80180911903909110
:104910001A03A0911B03B0911C03820F911DA11DCE
:10492000B11D30C4853209F419C48A3209F433C484
:10493000843209F078CE6091190370911A03809146
:104940001B0390911C030E94991A029709F077C2E9
:1049500080918F019091900190937C0180937B01D5
:104960008091190390911A03A0911B03B0911C032D
:104970008093770190937801A0937901B0937A01A5
:104980005EC2893509F4A5C708F041C0823309F435
:104990001AC488F4803309F4A9CF813309F043CED7
:1049A0006091190370911A0380911B0390911C036D
:1049B0000E94D41A9BCF853309F423C48B3409F4A5
:1049C0004EC4833309F02FCE6091190370911A03FE
:1049D00080911B0390911C030E94D41A019709F047
:1049E0002EC22091A80130E0A3E0B0E00E94713A0D
:1049F0000091190310911A0320911B0330911C039D
:104A0000DC01CB01800F911FA21FB31FBBC38C3FE2
:104A100009F4E9C508F063C08A3F09F4EFC58B3F8C
:104A200009F001CE809117038111EAC088EE93E06E
:104A30009093A00180939F019091070320E83FE1AC
:104A4000992311F028E93CE03093960120939501D9
:104A50002BE632E030939801209397012FEB30E062
:104A6000309384012093830122ED30E03093820162
:104A70002093810124EF30E030939C0120939B012F
:104A800029EE31E030939A012093990181E08093DF
:104A90001703911102C080930803809108038230AC
:104AA00009F0A7C0109287011092190310921A03FF
:104AB00010921B0310921C038091BB039091BC03C6
:104AC0000296B0E0A0E08093A3019093A401A0938C
:104AD000A501B093A60185E0809308038AC08E3FAC
:104AE00009F418C508F452C580910601882309F419
:104AF0005BCD2FEF3FE79CC680911703811180C0EB
:104B00006091190370911A0380911B0390911C030B
:104B10000E94991A029741F480918F01909190011F
:104B20009093A00180939F016091190370911A03E3
:104B300080911B0390911C030E94991A029779F4AB
:104B400080918F01909190010196B0E0A0E0809358
:104B5000A3019093A401A093A501B093A601609135
:104B6000190370911A0380911B0390911C030E94FA
:104B7000D41A0197E9F48091A80181113EC08FE712
:104B80009FE19093960180939501809119039091F4
:104B90001A03A0911B03B0911C030197A109B1094D
:104BA0008093190390931A03A0931B03B0931C03E3
:104BB0008BE692E090939801809397018FEB90E0C1
:104BC000909384018093830182ED90E09093820121
:104BD0008093810184EF90E090939C0180939B01EE
:104BE00089EE91E090939A018093990181E08093FE
:104BF000170388E08093000105C087E99CE0C1CFDE
:104C00000E94AF1C2B960FB6F894DEBF0FBECDBF2F
:104C1000DF91CF911F910F91FF90EF90DF90CF9098
:104C20000895809117038111EBCF60911903709162
:104C30001A0380911B0390911C030E94991A0297FA
:104C400051F480918F01909190010E941E109093D9
:104C50009801809397016091190370911A038091D4
:104C60001B0390911C030E94991A029751F48091A2
:104C70008F01909190010E941E1090938401809367
:104C800083016091190370911A0380911B03909125
:104C90001C030E94991A029751F480918F01909100
:104CA00090010E941E109093820180938101609177
:104CB000190370911A0380911B0390911C030E94A9
:104CC000991A029751F480918F01909190010E945E
:104CD0001E1090939C0180939B0160911903709129
:104CE0001A0380911B0390911C030E94991A02974A
:104CF00051F480918F01909190010E941E10909329
:104D00009A01809399016091190370911A0380911F
:104D10001B0390911C030E94991A029741F4809101
:104D20008F019091900190939601809395016091ED
:104D3000190370911A0380911B0390911C030E9428
:104D4000D41A019721F48091A80180930001609109
:104D5000190370911A0380911B0390911C030E9408
:104D6000991A029741F480918F019091900190934C
:104D7000A00180939F016091190370911A038091A3
:104D80001B0390911C030E94501A039799F4809181
:104D9000910190919201A0919301B091940101969B
:104DA000A11DB11D8093A3019093A401A093A5011F
:104DB000B093A60181E05CC08091170381112BC0E4
:104DC0006091190370911A0380911B0390911C0349
:104DD0000E94991A029751F480918F01909190014D
:104DE0000E941E109093980180939701609119037F
:104DF00070911A0380911B0390911C030E94991AD1
:104E00000297C1F680918F01909190019093960145
:104E100080939501CFCF80919701909198019093C5
:104E2000040180930301809195019091960101976F
:104E30009093960180939501892B09F0E3CE81E050
:104E400080931803DFCE6091190370911A0380914B
:104E50001B0390911C032091170321110CC00E9489
:104E6000D41A019721F48091A80180937D0184E0F8
:104E700080931703C7CE0E94991A029751F480912C
:104E80008F01909190010E941E10909304018093D5
:104E9000030180917D01815080937D01882379F207
:104EA000B1CE80911703811171C060911903709187
:104EB0001A0380911B0390911C030E94991A029778
:104EC00051F480918F01909190010E941E10909357
:104ED0009C0180939B016091190370911A0380914A
:104EE0001B0390911C030E94991A029751F4809120
:104EF0008F01909190010E941E1090939A018093CF
:104F000099016091190370911A0380911B0390918C
:104F10001C030E94D41A019721F48091A801809368
:104F200000016091190370911A0380911B03909105
:104F30001C030E94991A029741F480918F0190916D
:104F400090019093A00180939F016091190370914B
:104F50001A0380911B0390911C030E94501A03971F
:104F600009F085CF8091910190919201A0919301D8
:104F7000B09194010196A11DB11D8093A30190935E
:104F8000A401A093A501B093A60171CF843069F06C
:104F9000853009F037CE80919F019091A0019093C8
:104FA00086018093850189E5C2C40E94D71B2ACE61
:104FB00000918801109189019801306430930401B7
:104FC00020930301843021F7FF24F394F0928A01A7
:104FD0008091A90181114FC06091190370911A034A
:104FE00080911B0390911C030E94D41A0197B9F57C
:104FF0008091A8018093A7018091A3019091A401C1
:10500000A091A501B091A6010197A109B1098093D2
:10501000A3019093A401A093A501B093A6010097CA
:10502000A105B105F9F48091190390911A03A0919B
:105030001B03B0911C030197A109B10980931903C7
:1050400090931A03A0931B03B0931C0380919F01BC
:105050009091A001892B09F4F2CE85E009CFF0925E
:105060001503F4CF0197A105B10519F188E08093EC
:10507000A90110929E018091A70187FF05C01066CB
:10508000109304010093030180919E018E5F809331
:105090009E01823009F0B6CD8091A701880F8093E0
:1050A000A7018091A90181508093A90110929E01CE
:1050B000A9CD80910001DBCF80911703882331F0C7
:1050C000843009F09FCD0E94741D9CCD609119031E
:1050D00070911A0380911B0390911C030E94FC198C
:1050E0006091190370911A0380911B0390911C0326
:1050F0000E94991A029741F480918F01909190013A
:105100009093A00180939F018091190390911A03BD
:10511000A0911B03B0911C038A5A9F4FAF4FBF4F02
:105120008093190390931A03A0931B03B0931C035D
:105130009ECE6091190370911A0380911B03909188
:105140001C030E94991A029709F05CCD80918F018F
:1051500090919001009709F472CE21CF80917B014C
:1051600090917C01019790937C0180937B01892B26
:1051700009F465CE8091770190917801A091790131
:10518000B0917A018093190390931A03A0931B03A3
:10519000B0931C0354CE8091190390911A03A091EF
:1051A0001B03B0911C030496A11DB11DEBCF809190
:1051B000190390911A03A0911B03B0911C0305964B
:1051C000A11DB11DDFCF6091190370911A03809169
:1051D0001B0390911C030E94991A029709F02FCE8D
:1051E00020918F01309190018091190390911A03C1
:1051F000A0911B03B0911C03820F931FA11DB11D31
:10520000C1CF6091190370911A0380911B03909193
:105210001C03605F7F4F8F4F9F4F60931903709304
:105220001A0380931B0390931C030E94FC1904979C
:1052300009F005CE8091190390911A03A0911B03E8
:10524000B0911C03409191015091920160919301A2
:1052500070919401840F951FA61FB71F93CF809163
:105260001703813009F4BFC028F1843009F090CED3
:105270008091A901882309F41BC19091A901809113
:105280009E018F5F9B3009F0C5C020919B0130913A
:105290009C01309304012093030180939E0182308E
:1052A00009F0C9C08091A90181508093A901109291
:1052B0009E01C1C06091190370911A0380911B0374
:1052C00090911C030E94FC19049799F4809191011C
:1052D00090919201A0919301B09194010C97A10932
:1052E000B1098093A3019093A401A093A501B09369
:1052F000A6016091190370911A0380911B0390918C
:105300001C030E94991A029741F480918F01909199
:1053100090019093A00180939F0180E197E2909388
:105320009601809395018091190390911A03A091A1
:105330001B03B0911C030A96A11DB11D8093190394
:1053400090931A03A0931B03B0931C038091080150
:1053500090910901803649E0940759F1ACF4803B03
:10536000944009F027CD80ED90E090939A018093CE
:105370009901909398018093970181EA91E090932D
:105380009C0180939B0116CD80312EE09207F1F0B5
:10539000803B9E4009F00ECD83E490E090939A010B
:1053A00080939901909398018093970185E890E00C
:1053B000E6CF88E690E090939A01809399019093CC
:1053C00098018093970181ED90E0D9CF85E490E03A
:1053D00090939A01809399019093980180939701FB
:1053E0008BE890E0CCCF80919501909196019C0143
:1053F000215031093093960120939501892B09F4AE
:1054000036CD8091970190919801909304018093FB
:105410000301F8CB9091A901933038F520919901BF
:1054200030919A01309304012093030180939E01EF
:10543000843009F437CF8091A3019091A401A09109
:10544000A501B091A601892B8A2B8B2B09F0DACB11
:105450008091A9018111D6CB80919F019091A001EB
:105460009093860180938501F8CD9091A701492FF3
:1054700041702091990130919A0190FD04C02091D2
:105480009B0130919C013093040120930301809390
:105490009E01442351F0843071F68091A70190E081
:1054A000959587958093A701FDCE823021F6F5CFA3
:1054B0008091A9018111BFCFC090A301D090A40118
:1054C000E090A501F090A601C114D104E104F1041B
:1054D00009F4BECF6091190370911A0380911B03E8
:1054E00090911C030E94D41A019709F01FC281E019
:1054F000C81AD108E108F108C092A301D092A40112
:10550000E092A501F092A6018091A8018093A701E5
:105510008BE0CBCE80911703811172CB88EE93E0A4
:105520009093A00180939F016091190370911A03D9
:1055300080911B0390911C030E94991A029779F4A1
:1055400080918F01909190010196B0E0A0E080934E
:10555000A3019093A401A093A501B093A60160912B
:10556000190370911A0380911B0390911C030E94F0
:10557000D41A019709F01CCB8091A801811103C0B6
:1055800080E89FE1FECA88E99CE0FBCA809117038E
:10559000813059F008F094CD88E893E19093A00110
:1055A00080939F011092760105CC8091A901811111
:1055B00017C0E0917601F0E0E750FC4FE491E093F2
:1055C000A701809176018F5F8093760180917601AB
:1055D0008A3009F44CCC89E08093A90110929E0195
:1055E0000E94C70F0FCB80911703811169CD88E806
:1055F00093E19093A00180939F0139CCE091170330
:10560000EB3008F0FFCAF0E0E85FF44D0C94573C33
:10561000132B0226132B3D2B1D2C5E2C652BDB2B15
:10562000112C4B2BFF2B8091A901882319F00E948C
:105630003310E8CA6091190370911A0380911B031B
:1056400090911C030E94D41A8091A8018093A70115
:105650008BE08093A9011092A2011092A101809188
:10566000A701863131F480910601815080930601B3
:10567000C9CA1092A90183E0FBCB8091A9018111D5
:10568000D6CF8091060196E181110EC081E0809312
:10569000060189E0EDCB8091A9018111C8CF8091ED
:1056A0000601882359F094E29093A7019BE0909320
:1056B000A9011092A2011092A101D7CF89E0809395
:1056C00006011092A10186E0D3CB8091A90181113E
:1056D000AECF1091060187E0112309F4C9CB609188
:1056E000190370911A0380911B0390911C030E946F
:1056F000D41A8091A8018093A7019BE09093A901FF
:105700001092A2011092A101153099F490E0982F07
:105710008827092E000CAA0BBB0B8093A301909342
:10572000A401A093A501B093A60111501093060106
:1057300069CA143099F490E00196092E000CAA0B66
:10574000BB0B4091A3015091A4016091A501709100
:10575000A601840F951FA61FB71FDFCF1330E1F4FA
:1057600090E0982F8827092E000CAA0BBB0B4091C4
:10577000A3015091A4016091A5017091A601481B5D
:10578000590B6A0B7B0B4093A3015093A4016093C8
:10579000A5017093A601C9CF123039F64091A3013B
:1057A0005091A4016091A5017091A601481B510977
:1057B00061097109E8CF8091A901811138CF609109
:1057C000190370911A0380911B0390911C030E948E
:1057D000D41A8091A8018093A7018BE08093A9013E
:1057E0001092A2011092A1018091A70181110ACA11
:1057F00081E0809306011092A9018AE039CB809163
:10580000A901811114CF80910601882319F010920B
:10581000A7014CCF84E6809306011092A10188E095
:1058200027CB8091060120ED30E0882309F41FCBBF
:10583000309304012093030118CF8091A9018111B5
:10584000F6CE6091190370911A0380911B03909119
:105850001C030E94D41A019731F58091A80180930E
:10586000A7018091A3019091A401A091A501B091FD
:10587000A6010197A109B1098093A3019093A40106
:10588000A093A501B093A6011092A201892B8A2BA7
:105890008B2B19F481E08093A1018BE08093A90107
:1058A00010929E01C4CE81E0809315031092860170
:1058B000109285018FEF8093060175CB80910601D0
:1058C00021E030E88111B4CF8FEF8093060182E0B0
:1058D000CFCA80918501909186010097F9F08D36AD
:1058E00020E2920790F02CE630E2309304012093FE
:1058F00003018C569042909386018093850180919C
:10590000030190910401906880CD909304018093ED
:1059100003011092860110928501F1CF81E08093FE
:10592000180380911503813009F06CC98FEF8093C3
:10593000140368C98091FF014AE06BEA73E090E0CC
:105940000E94F93961E870E08BEA93E00E94BB396C
:1059500050E040E068E070E08BEA93E00E946F1155
:1059600067E471E08BEA93E00E94873C20911E037C
:1059700030911F03C90168EE73E00E942F3C8A300A
:10598000910590F4C9016AE070E00E942F3C4AE062
:105990006DEA73E00E94F93950E040E06DE070E09C
:1059A0008BEA93E00C946F114AE06CEA73E0843662
:1059B000910580F36BEA73E0EDCF1F920F920FB663
:1059C0000F9211242F933F938F939F93AF93BF9385
:1059D0008091EF019091F001A091F101B091F2015D
:1059E0003091EE0123E0230F2D3758F50196A11DCC
:1059F000B11D2093EE018093EF019093F001A093ED
:105A0000F101B093F2018091F3019091F401A09122
:105A1000F501B091F6010196A11DB11D8093F3012E
:105A20009093F401A093F501B093F601BF91AF916B
:105A30009F918F913F912F910F900FBE0F901F90CC
:105A4000189526E8230F0296A11DB11DD2CF1F92F3
:105A50000F920FB60F9211242F933F934F935F93A2
:105A60006F937F938F939F93AF93BF93EF93FF9326
:105A70008091B900887F803609F44AC0F0F58832F9
:105A800009F4A7C018F5803109F49BC0B8F4882345
:105A900009F4F9C0883009F494C0FF91EF91BF91E7
:105AA000AF919F918F917F916F915F914F913F91B6
:105AB0002F910F900FBE0F901F901895883109F409
:105AC00088C0803251F780935A0414C0803409F49E
:105AD0009DC040F48033B9F38833F9F680935A04BB
